:020000022000DC
:1060000000000420C5950200ED950200E56E020037
:10601000F1950200F3950200F595020000000000E2
:10602000000000000000000000000000F7950200E2
:10603000F995020000000000FB950200FD950200AA
:1060400021860200FF95020085860200C17F0200C2
:1060500085810200FF950200317C0200E17D020093
:10606000917F0200A17F0200FF950200FF950200D0
:10607000FF950200FF950200FF950200FF950200C8
:10608000FF950200716A0200FF950200FF95020071
:106090000D6B0200FF950200B1890200FF9502001E
:1060A000FF950200FF950200FF950200FF95020098
:1060B000A1870200FF950200000000000000000020
:1060C000FF950200B1870200C1870200FF95020020
:1060D000FF950200FF950200FF950200FF95020068
:1060E000FF950200FF950200FF95020000000000EE
:1060F00000000000FF95020000000000FF95020074
:10610000000000000000000000000000000000008F
:10611000000000000000000000000000000000007F
:10612000000000000000000000000000000000006F
:10613000000000000000000000000000000000005F
:10614000000000000000000000000000000000004F
:10615000000000000000000000000000000000003F
:10616000000000000000000000000000000000002F
:10617000000000000000000000000000000000001F
:10618000000000000000000000000000000000000F
:1061900000000000000000000000000000000000FF
:1061A00000000000000000000000000000000000EF
:1061B00000000000000000000000000000000000DF
:1061C00000000000000000000000000000000000CF
:1061D00000000000000000000000000000000000BF
:1061E00000000000000000000000000000000000AF
:1061F000000000000000000000000000000000009F
:1062000010B5054C237833B9044B13B10448AFF3F0
:1062100000800123237010BDA09E0020000000001C
:10622000740D030008B5034B1BB103490348AFF3DA
:10623000008008BD00000000A49E0020740D030033
:10624000154B002B08BF134B9D46A3F5803A002148
:106250008B460F461348144A121A03F0B1FB0F4B3A
:10626000002B00D098470E4B002B00D09847002001
:10627000002104000D000D48002802D00C4805F054
:1062800021FC03F0BBFA2000290000F015F803F010
:10629000B7F900BF00000800000004200000000063
:1062A00000000000A09E0020FCAB0020C5BA020048
:1062B00095CC02000000000080B54FF0804301261D
:1062C0008EB0C3F878652648264F03F0C3FB002242
:1062D000CDE90C2220A1D1E900010CABCDE90A01E6
:1062E00093E803008DE8030005AC0AAB0CCB204615
:1062F00000F049FB07AD1C4800F088F9284600F083
:10630000E5F98DF821608DF8226095E8070000F02E
:10631000A9F994E80300154D00F0BEFA354341F2A7
:1063200088364FF47A40A847013EFAD1204600F063
:10633000D1FA9DF81A0002909DF8180001909DF87E
:10634000190000909DF815309DF816209DF8171043
:10635000384603F07FFBE2E7C9E6755B000000000A
:1063600046F8020051F80200B894002040F80200FC
:1063700038B5054D044645F001054FF47A40A8476D
:10638000013CFAD138BD00BFF0F802007FB50646E7
:106390000D46144672B601F097F900F0E7FF0028A9
:1063A000FBD1374803F056FB44F201039E4254D020
:1063B00044F202039E425ED122886168314803F0B4
:1063C00049FB01F041FB08B901F008FB0023ADF8DF
:1063D0000C308DF80E3003A9012304208DF80D3008
:1063E00001F03CFB03A9052001F038FB03A90620BE
:1063F00001F034FB042001F0EDFB052001F0EAFB85
:10640000062001F0E7FB4FF4FA70FFF7B1FF04201C
:1064100001F0B2FB052001F0AFFB062001F0ACFB60
:106420003220FFF7A5FF042001F0D4FB052001F086
:10643000D1FB062001F0CEFB4FF4FA70FFF798FF76
:10644000042001F099FB052001F096FB062001F0E5
:1064500093FBFA20FFF78CFFCCE7A668304601F0EB
:106460005BFA23680195009302466368064831464B
:1064700003F0F0FAA5E72946044803F0EBFAA0E799
:106480006DF8020086F80200A1F80200CBF80200C5
:1064900007B501F0D9FA08B901F0A0FA0023ADF868
:1064A00004308DF8063001A9012304208DF8053051
:1064B00001F0D4FA01A9052001F0D0FA01A90620C3
:1064C00001F0CCFA042001F085FB052001F082FBED
:1064D000062001F07FFB4FF4FA70FFF749FF04201C
:1064E00001F04AFB052001F047FB062001F044FBC8
:1064F0003220FFF73DFF042001F06CFB052001F086
:1065000069FB062001F066FB4FF4FA70FFF730FFDD
:10651000042001F031FB052001F02EFB062001F0E4
:106520002BFBFA20FFF724FFCCE7000010B503682F
:106530002F2B044604D907494FF4F37002F046FFAD
:1065400023681F2B83BF03F01F03236002484FF013
:10655000A04010BD47F902000003005070B5C6B05E
:1065600060F07F00104D8DF814000DF115001446F9
:1065700003F08CF900231A460C49286800F0F6FD58
:1065800028680134002201A905AEE4B20430CDE947
:1065900003220196029401F089FF2868043001F07B
:1065A00027FF46B070BD00BFC89E0020C8940020E1
:1065B000F0B5144CC7B0002315460F468DF8030004
:1065C0001A461149206800F0D1FD0123206802938A
:1065D00005AB03936B1CDBB201A900220DF103068E
:1065E00004300493019601F061FF2068043001F04B
:1065F000FFFE2A460DF11501384603F047F947B072
:10660000F0BD00BFC89E0020C894002013B5134BF6
:106610001860134B0F229A7002A80D2200245A70A2
:106620000C22DA7040F8044D4FF000529A601C734F
:106630005C73FFF77BFF019B03F5E073032240F8D7
:10664000232002A840F8084DFFF770FF009A0123AD
:106650009340C0F8083502B010BD00BFC89E0020AE
:10666000C894002030B587B001AC84E807009DF8DD
:106670000A309DF8042043F0020343EAC2139DF858
:10668000052043EA82139DF8062043EA42139DF851
:10669000072043EA02139DF8082043EAC2039DF84D
:1066A000092006AD43EA820305F8013D234603CBEA
:1066B000054A1B7810605160137229460122102090
:1066C000FFF74CFF07B030BDBC9E002013B5012280
:1066D00004460DF107011020FFF76AFF9DF807300F
:1066E000DA092270C3F380126270C3F34012A27001
:1066F000C3F30012E270C3F3C0022271C3F380023D
:1067000003F001036271A37102B010BD2DE9F04FD7
:1067100085B004AB03E903009DF808B09DF80F3085
:106720009DF809A09DF80A909DF80B809DF80C60DB
:106730009DF80D509DF80E700193BBF1630F144648
:1067400004D9544A7221002000F043F9BAF13B0FFA
:1067500004D9504A7321002000F03BF9B9F13B0FF6
:1067600004D94C4A7421002000F033F9B8F1170F16
:1067700004D9484A7521002000F02BF9002E08BFEB
:106780000126731E002DDBB208BF01251E2B04D984
:10679000404A7821002000F01CF96B1EDBB20B2B65
:1067A00004D93C4A7921002000F013F9632F04D961
:1067B000384A7A21002000F00CF9019B062B04D9FD
:1067C000344A7B21002000F004F90A23BBFBF3F2DA
:1067D000B2FBF3F101FB132103FB12BBC9B24BEA7D
:1067E000011BBAFBF3F1B1FBF3F202FB131212012E
:1067F00003FB11AA02F07002B9FBF3F142EA0A0AA4
:10680000B1FBF3F202FB1312120103FB119902F028
:106810007002B8FBF3F142EA0909B1FBF3F202FBA3
:106820001312120103FB118802F03002B6FBF3F1E0
:10683000C8B242EA0808B0FBF3F203FB12021201ED
:1068400003FB116602F03002B5FBF3F116430A01B7
:1068500003FB115502F010021543B7FBF3F2B2FB34
:10686000F3F103FB127701FB1321019B84F800B0C5
:10687000C9B247EA011703F0070384F801A084F8BE
:10688000029084F8038026716571A771E37105B0E9
:10689000BDE8F08FF6F802001FB50D4B9A796C46F3
:1068A00084E8030032B901229A71186859681A7A8B
:1068B000FFF7D8FE94E8030002AAFFF727FF08229B
:1068C0000DEB02010020FFF749FE04B010BD00BF30
:1068D000BC9E00201FB5044601A908220020FFF736
:1068E00067FE9DF804301A0902EB820203F00F03E1
:1068F00003EB420323709DF80530C3F3021202EB51
:10690000820203F00F0303EB420363709DF806302D
:10691000C3F3021202EB820203F00F0303EB420304
:10692000A3709DF80730C3F3011202EB820203F05B
:106930000F0303EB4203E3709DF80830C3F3011229
:1069400002EB820203F00F0303EB420323719DF875
:106950000930C3F3001291000A4403F00F0303EB64
:10696000420363719DF80A301A0902EB820203F0B8
:106970000F0303EB4203A3719DF80B3003F00703F1
:10698000E37104B010BD82B0F8B506A9044608460C
:1069900081E80C0002F044FE03690779067A057B62
:1069A00090F800C0089984F801C05A1C4369007E21
:1069B000E071643B42F2107E204691FBFEF1A7702D
:1069C0002170E67025716271A371BDE8F84002B0D4
:1069D000704700B583B002900091019244F201002B
:1069E00071466A46FFF7D2FC03B000BD094A5378EE
:1069F00091780133DBB2994208BF002311789942A4
:106A00001FBF03705078182303FB002014BF04300D
:106A100000207047CC9E002037B5044600200D466C
:106A200000F038FA0DF10700FFF7E0FF90B10570B4
:106A3000094B9DF8072044605A700024002000F0A4
:106A400039FA24B9054B4FF48012C3F800212046CF
:106A500003B030BD0424F1E7CC9E002000E100E04B
:106A6000024B4FF43C6043F00103184790F90200D9
:106A7000F8B51F491F4B0025C1F84051C1F84451DA
:106A8000C1F84851C1F84C51C1F80051C1F8045146
:106A90001B684BB3D1F8044517490968641A24F000
:106AA0007F442F461A68A24209D8A41A15441A7CBA
:106AB000DE691AB11F74D3E905209047AEB90F4BB8
:106AC0000F4A197813788B4205D10133DBB2022BC0
:106AD00008BF0023137012780A4B43F822500A4B68
:106AE0004FF48012C3F80021F8BD3346DAE700BF47
:106AF00000100140EC9F0020E89F0020E49F002050
:106B0000E59F0020DC9F002000E100E02DE9F74F29
:106B10009C4A9D49137809789C4D99423CD0013399
:106B2000DBB2022B08BF0023137099491278994BEE
:106B30000F6853F822003B1823F07F4300220B60BC
:106B40002B6816461446944613B942B12B6006E0F2
:106B5000196881420ED902B12B60091A19604FF0F1
:106B600001082B68DFF834A200930027BEB9DFF8D4
:106B700034B260E0401A0C44D968C3F800C0D3F8BE
:106B80001CE031B13A1922F07F42C3E90121DE61F4
:106B90001E4601227346D7E70026B046E1E7344699
:106BA000F6697B4A63681268DFF8FCC1A068991A2D
:106BB00021F07F41614500F2A5800144216001225E
:106BC00022742A680023C4E90133E361002A40F0FB
:106BD000A2802C60CAE75A1C9BF80210D2B29142E4
:106BE0008BF8002004BF00228BF80020182202FB43
:106BF00003B32A6819799C68022974D003297ED0CE
:106C0000012918D1217CB1B9DA6862601A69A260E1
:106C10005A69E2609B69A3615F4B1B78002BC0D06F
:106C20006160BEE79C4200F090809946DB69002BD2
:106C3000F8D1002323749BF800309BF801209A427E
:106C4000C9D12B682FB9009A934202D1B8F1000F35
:106C500043D0002B41D0D3F800A0504D4C4BD5F879
:106C600004751C68DFF844813E1B98F8003026F05C
:106C70007F4603369BB94FF48033C5F84433C5F8DB
:106C80000433474B4FF400324FF00109C3F8802121
:106C90001A60C5F80090FFF7E3FE88F80090B2454F
:106CA0002CBF5444A41924F07F44C5F84045D5F8BE
:106CB0000435DB1B23F07F43E41B033324F07F44C4
:106CC000A3420AD9D5F80435C5F84035FFF7C8FE08
:106CD000334B4FF40032C3F800212F4B00221A70BF
:106CE00003B0BDE8F08F13469146A0E71174D26956
:106CF0000123002AFAD1002B9DD02A609BE70023B4
:106D00001946F6E7D31A23F07F43834234BFC31AF0
:106D10000023236053E721681368994213D8591A56
:106D20001160E26155E7091AD8691A4638B103467D
:106D300018688842F7D3401A186018461346216035
:106D4000E061DC6112E71346F2E74C450DD1D369EF
:106D50002B6053B90E4801920121CAF80810036054
:106D60000D4B1970FFF77CFE019AE1692368C9F8A1
:106D70001C1011B1086803440B602B689A4218BFBD
:106D8000012756E7E49F0020E59F0020EC9F0020AC
:106D9000E89F0020DC9F0020D89F002000100140C9
:106DA00000E100E0CC9E0020FEFF7F00D99F002084
:106DB0002DE9F3411C4EB37804460D4617468BB3BC
:106DC00080B304292CD9436963B3437C0020012B91
:106DD0000CBF88464FF0000800F05CF80DF107008A
:106DE000FFF704FED0B101230370104B4460D3F8C9
:106DF0000435C0E90487C0E902359DF80730737097
:106E00000024002000F056F824B9094B4FF48012FA
:106E1000C3F80021204602B0BDE8F0810424F0E769
:106E20000724F7E70824F5E7CC9E00200010014076
:106E300000E100E0064A92783AB130B1426922B1ED
:106E4000002202740221FFF7E7BD0820704700BF4F
:106E5000CC9E002072B6024A13680133136070475B
:106E6000F09F0020034A1368013B136003B962B628
:106E7000704700BFF09F0020EFF30583C3F30803C2
:106E80002BB9EFF31480C04300F0010070470120DC
:106E90007047000008B5FFF7EFFF012803D0044951
:106EA000432002F093FABDE80840FFF7D3BF00BFCC
:106EB00096F9020008B5FFF7DFFF012803D0044967
:106EC000512002F083FABDE80840FFF7CBBF00BFB6
:106ED00096F90200024B1B680021986802F0CEBDB3
:106EE000E49400201EF0040F1CBFEFF309800AE0B9
:106EF000EFF308800549064A884201D8904202D83B
:106F00008D464FF00000034B18470000000004209E
:106F100000E00320196F02002DE9F347054600F059
:106F2000D3FB00F023FA0028FBD12F4B2F4C9F6A94
:106F30002F4BE41AE408240444F00104002D4ED041
:106F4000AA692C49204600F091FBEB680193AB68DD
:106F500000932949D5E90023204600F0A7FBEB69FF
:106F600000932649D5E90423204600F093FB1E4BED
:106F7000DB6A980703D52249204600F073FBDFF84F
:106F80009490DFF894A000264FF0010808FA06F369
:106F90003B4206D059F826201AB15146204600F04F
:106FA00065FB01361A2EF1D1390605D50E4B154970
:106FB0005A6B204600F05AFB3A0405D50A4B124999
:106FC0009A6B204600F052FB104B1B68DB0700D584
:106FD00000BE2846FFF75CFA02B0BDE8F0870C4916
:106FE000204600F03FFBC2E700ED00E0E00D0300AB
:106FF000800D0300F1F9020006FA02003BFA0200DC
:1070000096FA0200E5FA020005FB0200F0ED00E04E
:1070100063FA020020FB0200DAFA020050E8002FB7
:107020000B4640E8003C9CF0000FF7D1104670473B
:1070300050E8003F43EA010240E8002C9CF0000FBA
:10704000F6D11046704750E8002F02EA010340E8ED
:10705000003C9CF0000FF6D11046704750E8003F0E
:1070600003EB010240E8002C9CF0000FF6D1104623
:10707000704750E8003FA3EB010240E8002C9CF071
:10708000000FF6D1104670470121FFF7D1BF002154
:10709000FFF7D9BF38B5044620B912494FF49270B2
:1070A00002F094F90020FFF7F5FE2268616813688A
:1070B0008B4215D9591E116013F8015C228AE368CE
:1070C00002FB05352268A36811685B1A1179DBB2EF
:1070D000994200D213710020FFF7ECFE284638BD1C
:1070E0000025F8E74800030038B50C46054620B9EE
:1070F0000E4940F2471002F069F924B90B494FF4E8
:10710000A47002F063F90020FFF7C4FE2A68136838
:10711000591C1160EA68A41A2A8AB4FBF2F41C70A4
:107120000020BDE83840FFF7C5BE00BF480003009F
:107130007FB503788DF804304368029383688DF837
:107140000C30C368049303698DF81430054A064B6C
:1071500001A853F8213052F82110984707B05DF884
:1071600004FB00BFF49F002004A00020F0B50646F9
:10717000944616F8047B194A42F827C0184A42F888
:107180002730184B0C460FCB85B06D4685E80F00B5
:1071900023788DF8003063788DF80130A3788DF86E
:1071A0000230E3788DF8033023798DF80530637968
:1071B0008DF80630A3680293237B8DF80C30BCF168
:1071C000000F637B8DF80D30074A3B4608BF002255
:1071D0002946304601F008F805B0F0BD04A00020B3
:1071E000F49F0020A000030031710200037813F027
:1071F000040216D003F00303012B03D0022B09D0A5
:10720000012070470A6800880232C0F383100244EC
:107210000A60F5E70B684288023303EB92130B60B8
:10722000EEE71046704700002DE9F04F484C87B05C
:107230000D460646871C00200092FFF72BFE2368B0
:107240002B60D4E901231344226801339B1A04F212
:107250001C4804F5836B04F21449BB4219D3009A0D
:107260000023002A6CD0012262F3010343F00403DF
:1072700066F389132168A2680A4003320F44002094
:1072800044F822302760FFF715FE012007B0BDE863
:10729000F08F01214046FFF7E1FE5846FFF7F4FE6C
:1072A0000DF1180A4846FFF7EFFE60684AF8100D26
:1072B000A5682840033004EB80005146FFF796FF95
:1072C00002460298002AF4D105EA000304EB830386
:1072D000811CDB6803930130054004EB850503F056
:1072E0000303012B0291ED6823D0022B08D019492A
:1072F000019240F2851002F069F8019A154607E004
:10730000BDF80E309B0903332D0C01EB9303029360
:107310004846FFF7BCFE08B1029B63602946404621
:10732000FFF79CFED4E901231344226801339B1A22
:1073300093E7BDF80C30C3F383132D0C0B44E6E741
:10734000022262F3010343F0040366F39F5391E7C3
:10735000E4A00020B0000300034BD3E90030C31ABF
:1073600058425841704700BFE4A000202DE9F04387
:1073700085B0FFF7F1FF0646002840F0F9807D4D0B
:10738000C5F81804BFF34F8F6868AC6804AF47F8BE
:10739000100D2040033005EB80003946FFF726FF33
:1073A000009B18B1D5F81824002A5FD004EA030224
:1073B000991C013305EB8202234005EB8303D2685D
:1073C000DB68029302F00303022B0192009162D169
:1073D000BDF8063068484FEA9318B8F1500FC1461F
:1073E00028BF4FF0500969F38F1309F10801ADF878
:1073F000063000F0E7F90746002800F0A48000F00E
:1074000010FA01A900230822384600F01DFA00995D
:1074100024EA01060136B600B14535D95FFA89F98B
:107420007EB3F6B2A9EB0609214003315FFA89F475
:10743000B146524E05EB810108234A46384600F01A
:1074400003FA36B109F1080322463146384600F006
:10745000FBF9009B08F1030803EB98030093D5F8B0
:107460001834002B4BD1D5F810445BE02A689A42BF
:1074700004D86A60304605B0BDE8F08304EA030032
:1074800088E73E493446D7E72140033108234A467E
:1074900005EB8101DAE7012B55D1BDF80430364800
:1074A000C3F38311062928BF062161F38913023132
:1074B0008900ADF8043000F085F90746002842D075
:1074C00000F0AFF90023082201A9384600F0BCF90A
:1074D0000026BDF80420C2F38312B31C96424FEA83
:1074E0008303BCD200994A1C21400331009205EB72
:1074F00081010422384600F0A7F90136E9E7384651
:1075000000F093F9FFF728FF80F00100C6B2B1E761
:10751000E3685B7923B1236839461B6820469847A6
:10752000E3681C68002CF3D1384600F07EF9204651
:10753000FFF7B0FCD5F818340BB9009B6B60002046
:10754000FFF7B8FCDEE7D5F8104454B90C4B0D48F2
:107550000D49C01AC008000440F0020000F082F893
:10756000D0E7236820469B689847E3681C68ECE7EF
:1075700000267FE7E4A00020100E0300F0A000200A
:10758000800D0300D80D03000D0103002DE9F74F16
:107590002F4C80460F46914601A9012218469B4672
:1075A000D4F808A0FFF740FE00283DD0019D00263A
:1075B000A91C5E4506EB010240D100212548FFF7DA
:1075C0002DFD80F3100B244B244A4FEA18499B1AD7
:1075D000B9EBD30F04D322494FF4D57001F0F6FE76
:1075E0006B1C03EA0A0304EB830349EA0B42DA60EB
:1075F00005EA0A030333012114F8232068F3C502C6
:1076000004F8232034F8232066F3891224F8232079
:1076100054F8232067F39F2244F8232061F30102EA
:107620006FF3820204F8232094F820341BB1FFF793
:107630009DFE0028FBD103B0BDE8F08F0AEA0202EC
:1076400004EB820259F82630D3600136B1E700BF5F
:10765000E4A0002000A50020100E0300800D030010
:10766000B000030000231A46FFF790BF13B502AC29
:10767000012344F8042D2246FFF788FF02B010BD15
:1076800007B5CDE9002302236A46FFF77FFF03B069
:107690005DF804FB1FB5CDE90123069B039301AA06
:1076A0000323FFF773FF05B05DF804FB1FB5CDE9B9
:1076B0000023069B0293079B03936A460423FFF76C
:1076C00065FF05B05DF804FB38B5094A0123D2F81F
:1076D000104482F820341D4604B938BDE3685D715A
:1076E000236820465B689847E3681C68F4E700BF9E
:1076F000E4A000202DE9F74F99469DF83030019322
:1077000088461746054618B92249B62001F05EFEA4
:10771000EA8895F805B00BFB02FBABF1040BCB45F7
:1077200003D81C49C42001F051FE3E68B5F806A0FC
:1077300006EB09025A4509F1040188BFABEB0906C3
:10774000B1FBFAF43E600AFB141144B9AAEB01073D
:10775000B74228BF37462EB903B0BDE8F08F2D6879
:10776000013CF2E7019A043108EB0403681872B196
:1077700001463A461846F61B02F088F8B2453C44EA
:107780002D6857464FF0000128BF3746E3E73A46D9
:107790001946F0E72B010300F8B546790146721E41
:1077A0000546002393422D6803D30024A64202D845
:1077B000F8BD0133F6E70F682846FFF795FC013462
:1077C0003946F3E72DE9F843CD1C068A0746FFF753
:1077D00061FC043E35440446B5FBF6F5F0B14FF4C8
:1077E0008073EDB28380C680013D076081464FF013
:1077F0000008A84512D23846FFF74CFC064648B1AF
:1078000063790133637108F10108C9F8000007606A
:107810008146EEE72046FFF7BFFF34462046BDE82D
:10782000F88301210430FFF719BC10B5012104468B
:107830000430FFF71EFC10F0FF0F04D12046BDE816
:107840001040FFF7A9BF10BD30B585B0144604AA9B
:10785000002542F8044D0095FFF74CFF039BA3421F
:1078600003D00349F62001F0B1FD05B030BD00BFE3
:107870002B01030038B50D46044618B908495020BD
:1078800001F0A4FD1DB90649512001F09FFD2560BE
:107890002B6863606A68934204BF0023636038BD4D
:1078A0008101030010B5044618B90B49632001F0AB
:1078B0008DFD23681BB90849642001F087FD6368CA
:1078C00043B1226891680B4463605268934204BFDD
:1078D0000023636010BD00BF810103000D4930B576
:1078E000A1F58C720225914201D800200EE08B1A7E
:1078F000DB1093FBF5F302EBC30452F83330834201
:1079000005D802D204F10802EDE7606830BD2146D7
:10791000E9E700BF1C03030008B5FFF7DFFF024BD8
:10792000002808BF184608BDF001030000F18040A0
:1079300000F5C040002382B0036003680193019BFF
:1079400002B07047054B4FF0FF32072843F8202064
:1079500084BF1B1883F85820704700BF08A500207B
:1079600010B503682F2B044604D907494FF4F37070
:1079700001F02CFD23681F2B83BF03F01F0323603E
:1079800002484FF0A04010BD47F90200000300502C
:1079900013B502AB0C4643F8040D1846FFF7E0FFA1
:1079A000019B00EB8300D0F8003723F44033C0F88C
:1079B0000037D0F8003743EA0443C0F8003702B07C
:1079C00010BD00004FF0A043D3F810350360024B08
:1079D000D3F81035436070470003005010B5164CC3
:1079E00094F86A3033BBFF21E2180133302B82F860
:1079F0003010F9D10021C8B2FFF7A4FF01310C29E2
:107A0000F9D1062200210D4801F0DAFF0C4BE022EB
:107A100083F8062340221A604FF4BE70FFF786FFFA
:107A2000084B4FF00042C3F80423012384F86A3066
:107A3000002010BD0820FCE708A500206CA5002050
:107A400000E100E000600040034B93F86A00003062
:107A500018BF0120704700BF08A500202F287FB560
:107A600004460D4604D941494FF4987001F0AEFC2C
:107A70003F4E96F86A30012B04D03C4940F2311059
:107A800001F0A4FC25B939494FF4997001F09EFC2E
:107A9000331993F93020013265D1AA78002A54D0E5
:107AA000002356F8231001314FEA830247D13119E0
:107AB00002F1804281F83030002102F5C04246F8E0
:107AC0002310D2F810052B78697820F499101B0444
:107AD000090520F4F85001F4801103F44033C2F892
:107AE00010050B432102D2F8100501F47C510B4321
:107AF0000343C2F810356D78012D04A829D140F850
:107B00000C4DFFF72DFF019B9D40C0F8085504A8C0
:107B100040F8044DFFF724FF039B164903F5E0737B
:107B2000032240F8232024FA02F2012304F0070480
:107B300003FA04F48B5C1C438C54002003E00133F3
:107B4000082BAED1042004B070BDFE2283F8302093
:107B5000D1E740F8084DFFF703FF029A0123934055
:107B6000C0F80C35D3E70820EDE700BFAD060300F1
:107B700008A500206CA500202F2837B5054604D99C
:107B800012494FF4BE7001F021FC114C621992F9B8
:107B90003020013204D10D4940F27D1001F016FC75
:107BA000631993F83030072B04D808494FF4BF709D
:107BB00001F00CFC02A840F8045DFFF7D1FE019A29
:107BC00001239340C0F8083503B030BDAD06030073
:107BD00008A500202F2837B5054604D912494FF4CF
:107BE000C37001F0F3FB114C621992F9302001329D
:107BF00004D10D4940F2871001F0E8FB631993F8B6
:107C00003030072B04D808494FF4C47001F0DEFB74
:107C100002A840F8045DFFF7A3FE019A01239340F8
:107C2000C0F80C3503B030BDAD06030008A5002038
:107C30002DE9F04F00248DB0CDE904445D4A5E4E3D
:107C40005E4D01211368A2F5C040012B80B206D120
:107C5000D6F804330B4202D0FFF768FE0C4304321F
:107C6000AA424FEA4101EDD1554B1B68012B08D1C7
:107C70004FF4BE70FFF75AFE04A844F00044FFF72B
:107C8000A1FE14F0FF0F1AD04E4F002501263442FA
:107C900010D0AB0003F1804303F5C043D3F81005C7
:107CA000D3F8101557F82530C0F30520C1F3014172
:107CB00003B198470135082D4FEA4606E7D1002C5D
:107CC00075DA06AF002306937B604FF0FF33CDE9F2
:107CD0000833DFF8F0804FF0000A554608EB0A033E
:107CE00093F96040631C4AD0E4B2012324F0C0063B
:107CF00004F0070B03FA0BFBF1080CAB5A1812F84F
:107D0000103C13EA0B0F3AD008EB0603A40993F9D1
:107D1000303058F82390B9F1000F06D1032C2ED142
:107D2000785C40EA0B00785401E0032CF8D003A8FB
:107D300001920396FFF714FE0399019A01F5E07191
:107D400012F8202C50F8211012EA0B0FC1F3014158
:107D500005D0022913D1032C0BD1214604E00329BD
:107D60000DD1032C05D102213046FFF711FE01355C
:107D7000EDB2B9F1000F02D021463046C8470AF1F2
:107D8000010ABAF1040FA9D18DB10AA8FFF71AFEB2
:107D9000049B0A9A9A420B9B02D105998B4206D00A
:107DA00004920593069A079B0892099393E70DB0F6
:107DB000BDE8F08F0061004000600040206100409D
:107DC0007C61004008A5002000F1804000F5E04003
:107DD000002382B0036003680193019B02B07047E7
:107DE000F0B5514B514C1B6885B0DBB14FF482703C
:107DF00094F82E20FFF7E8FF12B194F82F30A3B1CA
:107E0000636802932389ADF80C30E36800218DF894
:107E10000410002B44D12374236801A89847002341
:107E200084F82F3094F82E3003B3414B1B68EBB12C
:107E30004FF48070FFF7C8FF94F82D20638B91B248
:107E40008B4238D95B1A21899BB26383CB1A616854
:107E500001EB4301374BC3F82C16C3F830264FF41F
:107E60008270FFF7B1FF344B01221A60334B1B685D
:107E70005BB14FF48870FFF7A7FF002304A82374B9
:107E8000022300F80C3D236898472D4B1B6813B361
:107E90004FF48A70FFF798FF0023237405B0F0BDFC
:107EA000208B608363602081E160002AB4D1214B84
:107EB00001221A60B0E7D2D1E368012184F82F10C3
:107EC0003BB1002161831B49C1F82C36C1F8302633
:107ED000C5E76383C3E766694FF000470125002EBD
:107EE000DCD0B6FA86F227FA02F34632920026EA8E
:107EF000030602F1804303F5E0431B68002BEED03C
:107F00001046FFF761FFA2F58C72D30882F00402DD
:107F1000C2F380028DF808308DF804508DF80920E6
:107F2000236801A89847DAE70471004074A500208F
:107F3000007100400070004004700040107100406B
:107F4000147100402DE9F743002406460F4600F562
:107F5000A0754FF48038A14604F150002B688000D2
:107F600080B26BB1D6F8043308FA04F21A4207D093
:107F7000C5F800902B680193019BD7E90031984721
:107F80000134042C05F10405E6D103B0BDE8F0830B
:107F900001490248FFF7D6BFA4A500200080004099
:107FA00001490248FFF7CEBFB0A500200090004075
:107FB0000023435082B043580193019B02B07047A5
:107FC000F0B5504C236887B023B94F4940F24520A3
:107FD00001F0FCF94D4AD2F824311546A3B14FF413
:107FE00092711046FFF7E4FFD2F8043163B9A36839
:107FF000C2F808330223A360A368C2F80433012344
:108000001362536107B0F0BDD5F80431002B49D09D
:108010003F4F3E484FF48271FFF7CAFF0FCF01AECA
:108020000FC63B68336094F82E307BB1237B012B65
:108030000CBFD5F83C25D5F84C250292022B334BCA
:108040000CBFD3F83C35D3F84C3503934FF4B071E3
:108050002E48FFF7ADFF4FF4AE712C48FFF7A8FF95
:1080600094F8303013B194F82E303BB1274B0022F6
:10807000C3F80022A260274AC3F80823234AD2F893
:10808000C434C2F8C4349A0736D501238DF80030C1
:1080900094F830300BB984F82F30D4E900316846B9
:1080A0009847AFE74FF4A4711848FFF781FF237B8F
:1080B00083B9174F0FCF01AE0FC63B68336094F8FA
:1080C0003030002BDAD1C5F80032A360114BC5F86F
:1080D0000833D3E74FF40073C5F8003240F20223AF
:1080E000A36003F1CE73C5F80833A368C5F8043361
:1080F0000123AB602B6285E713F0040318BF022352
:10810000C4E700BFBCA500201407030000300040F6
:10811000C8A5002002029C0110B503682F2B04465D
:1081200004D907494FF4F37001F050F923681F2B6D
:1081300083BF03F01F03236002484FF0A04010BD2F
:1081400047F902000003005007B502AB43F8040DE5
:108150001846FFF7E1FF019A01239340C0F80C3560
:1081600003B05DF804FB07B502AB43F8040D1846F5
:10817000FFF7D2FF019A01239340C0F8083503B0FE
:108180005DF804FB13B54FF04023D3F818310BB35F
:10819000114B124C00221A601B680193019B23684B
:1081A00023B90F494FF4277001F010F9E07FFF2841
:1081B00003D0A37F5BB1FFF7C7FF00236377237270
:1081C000D4E90031074802B0BDE810401847FFF776
:1081D000CAFFF2E702B010BD18410040F0A5002030
:1081E0006B070300F8A500202DE9F04F87B081460A
:1081F000CDE900230C4619B97749AD2001F0E6F826
:1082000099F80460754F242303FB06FB07EB0B0A68
:108210009AF81C10002940F0D980D9F80050704914
:10822000284600F03FFA8046002840F0D280009BAC
:1082300047F80B30019BCAF80430237B2078012BD0
:1082400000F2B280FFF780FF06A8237840F8103DC7
:10825000FFF762FF029B03F5E073012240F8232041
:1082600094F801A0BAF1FF0F00F0A1805046FFF78B
:108270006BFF06A840F80CADFFF74EFF039B03F51C
:10828000E073032240F8232094F802B0BBF1FF0F03
:1082900000F0908006A840F808BDFFF73DFF049B62
:1082A00003F5E073042240F82320242303FB067324
:1082B000A27883F82020E278DA77E078FF2815D0DA
:1082C0002379002B79D0FFF73FFF06A8E37840F829
:1082D000043DFFF721FF059B03F5E073032240F8FF
:1082E0002320242303FB067322799A772378C5F889
:1082F0000835C5F80CA5C5F810B5A368C5F8243530
:10830000637B227B003318BF0123022A58D0032A43
:1083100059D0012A01D143F00203C5F85435A3799D
:10832000C5F8C03524237343FB5813B14022C5F868
:1083300004230722C5F800255BB3D9F8003064791F
:108340004FEA133A94424FFA8AF503D925496B2034
:1083500001F03CF8002DACBF05F16043224B4FEA21
:108360004414B8BF0AF00F0AE4B2AABF03F5614390
:1083700003F80A4083F80043D9F800301B0B5AB2C7
:10838000012103F01F0301FA03F35209174941F8D1
:108390002230242303FB06760023737701233377EF
:1083A000404607B0BDE8F08FFFF7DDFE4CE74FF029
:1083B000FF3A69E74FF0FF3B77E7FFF7D4FE84E72A
:1083C00043F00403A9E743F00603A6E74FF00808CB
:1083D000E6E74FF01108E3E76B070300F0A5002084
:1083E00085810200BD07030014ED00E000E100E01C
:1083F0002DE9F341294D0479242303FB0453064658
:108400001B7F23B9264940F2611000F0DFFF2423CF
:108410006343E85860B133681B0B5AB2012152091B
:1084200003F01F0301FA03F320321E4941F8223002
:10843000376890B11C4BC7F80833242303FB04535F
:108440005B7F53B101237B61D7F80431002BFBD054
:10845000242303FB045300225A77242303FB0453F1
:1084600093F82030FF2B0AD002A840F8043DFFF714
:1084700053FE019B03F5E073022240F823204FF0E6
:108480000008C7F80085306800F02EF9242303FBAC
:10849000045484F81C8002B0BDE8F081F0A50020EF
:1084A0006B07030000E100E0520108002DE9F341F1
:1084B000594F0679242303FB067380461B7F0D4624
:1084C000144623B9554940F2322000F07FFF2B6853
:1084D00033B96B6823B1514940F2332000F076FF85
:1084E000AB6833B9EB6823B14C494FF40D7000F021
:1084F0006DFF98F804303BB9EB68B3F5803F03D2C9
:108500006B68B3F5803F04D3444940F2372000F054
:108510005DFF24237343FA18517F002979D1FB585A
:1085200023B114F0140F04BF0123537795E80F0013
:108530004FF0240C0CFB067C0CF10C0E8EE80F00A7
:108540009CF81F00FF2804D09CF81E30C3B1FFF731
:108550000AFE2A6822B102F06043B3F1005F06D13F
:10856000AB6883B103F06043B3F1005F0BD0242309
:1085700003FB067600237377102002B0BDE8F0817C
:10858000FFF7E2FDE5E7D8F800306968C3F8442555
:10859000C3F84815D5E90212C3F83415C3F83825D5
:1085A0000022C3F81821D3F818210192019A14F07F
:1085B000010218BF0122C3F8502514F0020218BFAF
:1085C0000122C3F8402522075CBF01221A61242240
:1085D0007243BA5892B9D3F81821002AFBD0242349
:1085E00003FB0676F07FFF2803D0B47F1CB1FFF7B2
:1085F000ABFD0020C1E7FFF7B6FDFAE714F0040079
:108600004FF0400202D0C3F80823F2E7C3F8042376
:10861000B3E71120B1E700BFF0A500206B0703000E
:1086200007B5154B1A687AB100221A601B680093CF
:10863000009B4FF080430122C3F808230F4B587969
:1086400010B95A711B6898470D4B1A6882B1002205
:108650001A601B680193019B4FF080430222C3F80C
:108660000823064B1B68012003B05DF804EB184794
:1086700003B05DF804FB00BF0001004014A6002019
:108680000401004010B5054C22681AB90449512074
:1086900000F09CFE2368BDE8104018471CA600208F
:1086A0002108030038B50D4628B90C49772000F0A1
:1086B0008DFE002038BD0A4B9842FAD10020FEF70B
:1086C000E9FB084B1C7914B901221D601A710020C6
:1086D000FEF7F0FB002CECD01120EBE721080300A3
:1086E000002000401CA6002018B906499B2000F07D
:1086F0006DBE054B984201BF044B00221A601A71EF
:10870000704700BF21080300002000401CA6002085
:108710000023435082B043580193019B02B070473D
:1087200070B5D0F8103105460C4653B14FF488713E
:10873000FFF7EEFF63795A0703D523680BB10120D9
:108740009847D5F814315BB14FF48A712846FFF78A
:10875000DFFF63791B0703D523680BB1022098471D
:10876000D5F81C315BB128464FF48E71FFF7D0FF6E
:10877000607910F0100002D1236803B19847D5F852
:10878000043163B14FF482712846FFF7C1FF012322
:10879000237123681BB10320BDE87040184770BDEA
:1087A00001490248FFF7BCBF24A6002000C00140D9
:1087B00001490248FFF7B4BF2CA600200010024078
:1087C00001490248FFF7ACBF34A600200020024058
:1087D0000369C1688B429DBF8268D21802F1FF32E3
:1087E00003F1FF3394BF501A581A70472DE9F04136
:1087F000D0E902670446F61B406896428846154653
:10880000384405D901F042F83D44E560BDE8F08107
:108810003246AD1B01F03AF82A4608EB06016068C3
:1088200001F034F8F1E72DE9F843C56806468946BA
:1088300017464FF000083469B3687068A54228BF36
:10884000E418013C621B5C1BBC4228BF3C469442BE
:1088500028BF144649462844224601F017F8B36859
:108860002544AB4208BF00253F1BA044A144F5604E
:10887000E1D14046BDE8F88310B5114C114AA26120
:108880000223C4E90433104BE361A2644FF4007384
:108890000E4A2362E264002310220D49A362E01D08
:1088A0006362E362A3656365E365226501F0AEF987
:1088B0000849204601F0AAF92023A37110BD00BF8A
:1088C00058AB00207E0803004CA600203CA60020E8
:1088D000870803008B080300F8B5184C182300FB29
:1088E000033503FB00402544C46A012C0F4616469D
:1088F00011D003D3022C1BD000240AE02846FFF736
:1089000067FF864205D8324639462846FFF76EFF94
:1089100034462046F8BD2846FFF75AFF86423446C3
:1089200028BF0446224639462846FFF75FFFF0E796
:108930002846BDE8F840FFF776BF00BF58AB0020DF
:1089400070B50B4B1B7804460D4616460BB9FFF766
:1089500093FF0020FEF79EFA324629462046FFF795
:10896000BBFF04460020FEF7A5FA204670BD00BFFD
:1089700058AB002010B511461C461A460020FFF7E0
:10898000DFFF204610BD000007B508496846FEF726
:1089900071FF019B13B903B05DF804FBD3E900201C
:1089A00090476846FEF77EFFF3E700BFA00803008C
:1089B000FFF7EABF70B5C0B14AB116880024B442CF
:1089C00003D305196D789D4208D0A14201D800203B
:1089D0000BE0055D01352C44A4B2F0E7A142F6D9C5
:1089E000A31C1380005D013880B270BD37B502ACA6
:1089F000002324F8023D134622460546FFF7DAFF1E
:108A000010B1BDF80600284403B030BD72DF7047D6
:108A100073DF704738B5012204460D46B0F83812AE
:108A2000D0F83402FFF7E2FF00B1057004F13C0218
:108A300004F50D7104F15400BDE83840FFF7E6BFBE
:108A4000F8B5077804460D46002F00F0058100F2C6
:108A50004A26A17007220021304600F0B1FFE388CA
:108A600013B1A378012B04D0E3794BB1A378022B87
:108A700006D1636BA3B1012284F8512208209847E4
:108A8000334604F5147113F8012F12B99942FAD143
:108A900017466B1E032B53D8DFE803F0050B0F12AC
:108AA00084F85132ECE7A3791BB194F8243003B970
:108AB0005FB9E3790BB1002F44D1237A002B43D166
:108AC000637A002B0CBF00250425636BA570002B77
:108AD0003CD0033D012D39D86279002A36D094F874
:108AE0005222002A32D184F85422012284F85322DF
:108AF0000720984704F13C0518220021284600F081
:108B00005FFFE36A94F824200121581E884288BF41
:108B10000B4684F83C1084F8513032B1884296BF3D
:108B2000A36A84F8521084F85230A178002384F8A4
:108B3000503004291BD8DFE801F0770D22355900A9
:108B40000025C2E70225C0E70325BEE7002384F81D
:108B50005332CFE7C4F84432C4E910630223012240
:108B600084F83C30802384F83120A4F84830A3787E
:108B7000002B5CD1636B002B6AD1002067E00223DD
:108B800084F8313062B1072384F83C302369A4F8BB
:108B900048300023C4F84432E36826646364E6E79F
:108BA0000323F1E763696364A369A4F8483012B151
:108BB000062384F83C306379B3B194F852329BB900
:108BC00094F8543283B1022384F8503004212046B3
:108BD000FFF720FF0028CAD1052384F8313004F5BF
:108BE0000D73C4F84432C2E70323F6E7E369636414
:108BF000236AA4F8483012B1062384F83C30637924
:108C000083B194F852326BB994F8543253B10223C1
:108C100084F8503004212046FFF7FCFE0028A6D13E
:108C20000623DAE70423D8E784F831309FE72A46A1
:108C3000D4F8441204F15400FFF7E8FE38B994F870
:108C4000301094F85400FFF7E3FE002892D0F8BDEE
:108C500094F83100984790E70820F8E710B50388AA
:108C6000112B0C460AD0262B1FD0102B05D1C37B0D
:108C7000012B02D18388A1F8483210BD002381F86E
:108C800052328288B1F848329A42F6D10B79002BE1
:108C9000F3D101212046FFF7D3FE0028EDD0A36BCE
:108CA000002BEAD0BDE810401847037A013B012BA6
:108CB000E3D889780523013191FBF3F303EB8303B8
:108CC000C91AC9B2E6E77047034B1A8882420CBF43
:108CD00018460020704700BF68A80020024B9B691F
:108CE00003B11847704700BF4CA8002013B50B46CE
:108CF000497A0F4C024669B9D4E901101C7A002C5C
:108D000018BF01465868FEF753F808B1FFF7E6FFB1
:108D100002B010BD002119726369002BF8D0012147
:108D2000ADF806008DF8041001A89847F0E700BFE1
:108D30004CA8002030B583880588B3F5FA7F24BF9E
:108D40006FF4F9729C184A8838BF002495420CD8F9
:108D50004088904209D38A88A24206D303F2F310D6
:108D6000904234BF0020012030BD0020FCE700000D
:108D700070B50388112B014648D002D8102B1ED0A5
:108D800070BD122B52D0502BFAD12F4BC288DB89E9
:108D90009A42F5D1038A022BF2D186883046FFF73A
:108DA00093FF05460028EBD001F1120000F050F8C7
:108DB00030BB6868FEF73EF80028E1D009E0C37BCD
:108DC000012BDDD14FF6FF70FFF77EFF054620B97E
:108DD0000420BDE87040FFF781BF8E881B4A0680E3
:108DE000002303721368C5F80A300A3053684360E1
:108DF0001031FFF79FFF144B6872DB89002BBFD146
:108E000029463046BDE87040FFF770BF8088FFF705
:108E10005BFF04460028B3D04068FEF70BF808B1AA
:108E2000FFF75CFF4FF6FF732380A9E78688304683
:108E3000FFF74AFF05460028A2D008310A30FFF7A5
:108E400079FF6872DCE700BF4CA800207CA80020F6
:108E5000007800F00100704790DF7047A5DF704791
:108E6000B5DF70477FB50023ADF80810ADF80A10E4
:108E70006A4602A9064603930093ADF80430FFF753
:108E8000EBFF0546F8B1114B114CE41AE408FEF76C
:108E900043FD240444F00104034632460D492046B4
:108EA000FEF7EEFBBDF80020BDF8023002B91BB1A1
:108EB00009492046FEF7E4FBBDF804201AB1074932
:108EC0002046FEF7D3FB284604B070BD800D03009A
:108ED000E80D0300B4080300FE0803003D09030089
:108EE00013B5034680880C46A0B91A88232A00F0DF
:108EF000AF8011D8102A25D0112A54D0A37A4BB1B3
:108F0000E1880020FFF7AAFF002840F0A780012396
:108F1000A072E37202B010BD3A2A4ED0552A68D032
:108F2000242AEBD11A7A0B694A73002BE6D04DF64E
:108F30007A21ADF80400ADF80010ADF802008DF80C
:108F4000042081E00A790A73DB7B012B13D0022B0A
:108F500014D0E18823898B4205D20020FFF77EFFE1
:108F600070B90123E372217B637B8B42C6D2002060
:108F7000FFF778FFC2E70B88E380EAE74B88FBE75F
:108F8000112802D10123A372EDE7FEF7C5FC3C4A8C
:108F90003C4B3D499B1ADB081B04024643F0010091
:108FA000FEF764FBDFE7F723CB8017230B8141F645
:108FB000FB338872C8728B81A0E75B89CA889342B1
:108FC00028BF1346172B0A6938BF17230B8162B1DC
:108FD000C97A51B140F67721ADF80010ADF8020022
:108FE000ADF804306946204690470023E372A3722F
:108FF00084E7DB88C988A072172B38BF17238B4200
:1090000028BF0B462381FFF72BFF60B1FEF784FCDE
:109010001B4A1C4B1D499B1ADB081B04024643F0EC
:109020000100FEF723FBE27A002A7FF467AF236991
:10903000002B3FF463AF40F67721ADF80220228980
:10904000ADF80010ADF8042069462046984755E772
:10905000197A237B994228BF194689E711283FF4E2
:1090600059AFFEF759FC064A064B07499B1ADB0825
:109070001B04024643F00100FEF7F8FA4AE700BF7E
:10908000800D0300E80D030093090300C4090300E9
:10909000B0DF704766DF704710B503460021408897
:1090A000FFF7F8FF024608B91A7210BD112801D166
:1090B0000122F9E75B68BDE81040184728B1037842
:1090C000DE2B04D14180002070470E20704708201D
:1090D0007047F0B5054685B00C46F1B1E8B10B78A4
:1090E000DE2B1AD182884B889A4204D10B7A13B1B5
:1090F0000846FFF7D1FF2B88112B32D0512B0ED011
:10910000012B0AD12B7A012B07D1A98862889142C1
:1091100003D123722046FFF7BFFF05B0F0BDAE8834
:109120006388B342F9D1AF79022FF6D1AD7B2B1F03
:10913000022BF2D800211022684600F041FC052DD8
:1091400014BF4FF4C0730023694630468DF8007099
:10915000ADF80430FFF79CFF0028DED06368984725
:10916000DBE76388AA889A4204BF4FF6FF736380E7
:10917000D3E761DF7047000030B5134DADF5017DD9
:109180004FF4FA740DF1020103A8ADF80240FFF7A5
:10919000F0FF70B9294601A8FEF76CFB029B002B7B
:1091A000F0D003A8D3E90021904701A8FEF77AFB8D
:1091B000F4E7052804D0054A40F23911FDF709FC0F
:1091C0000DF5017D30BD00BF580A0300000A030001
:1091D000024B1B780BB1FFF7CFBF704784A800206C
:1091E00076DF70477FDF704786DF70478ADF704722
:1091F0008FDF7047B1DF704733DF704737B50388C3
:109200001D2B044600F0AC801DD8132B7CD00AD84F
:10921000102B3DD0112B5DD0604B13B12046AFF326
:10922000008003B030BD142B00F08C801B2BF3D1D9
:10923000037A012BF0D1FFF7DFFF0028ECD0584A6A
:109240004FF4CC716DE0502B52D00ED8212B00F092
:1092500096803B2BE0D113218088FFF7C1FF0028C7
:10926000DAD04F4A4FF4D0715BE0522B5CD045D33B
:10927000562BD1D18379002BCED14A4B132118889C
:10928000FFF7AEFF0028C7D0454A40F2A71148E0DB
:10929000444D818844482980FFF710FF20B1404A9F
:1092A0004FF49D71FDF795FB00231A461946288857
:1092B000FFF7A0FF20B13A4A4FF4A171FDF789FBF7
:1092C0003A4800F0C7FB3A4B002BA5D02046AFF33D
:1092D0000080A1E7334B37484FF6FF721A8000F049
:1092E000B9FB354B002B97D02046AFF3008093E7B6
:1092F000324B002B90D0AFF300808DE7304B002B2A
:109300008AD0AFF3008087E7264800231A468521DC
:109310000088FFF767FF00283FF47EAF204A40F245
:109320008111FDF756FB77E71E4800231A461946C0
:109330000088FFF75FFF00283FF46EAF184A40F245
:109340008711EEE7174800231A4619460088FFF7F1
:109350004BFF00283FF460AF114A40F29111E0E763
:10936000184B0BB1AFF3008017490020FFF73EFF09
:1093700000283FF451AF0A4A40F2C711D1E702A9D1
:10938000002321F8043D8088FFF732FF00283FF4D6
:1093900043AF034A40F2D111C3E700BF0000000011
:1093A000950A0300D0AB0020F4AA0020C30A0300F2
:1093B00000000000D30A03000000000000000000CD
:1093C0000000000000000000D894002038B50D46D1
:1093D0000446044800F03EFB2A4621460248FDF7B9
:1093E000F8FA38BD700A0300EFBEADDE054B1B680E
:1093F000082B01BF044B1868B0FA80F0400918BF71
:1094000000207047300100103401001008B54FF003
:1094100080430022C3F80C21C3F81021C3F838257B
:109420004FF0805203F54043D2F80414C3F82015DE
:10943000D2F80814C3F82415D2F80C14C3F8281570
:10944000D2F81014C3F82C15D2F81414C3F8301540
:10945000D2F81814C3F83415D2F81C14C3F8401508
:10946000D2F82014C3F84415D2F82414C3F84815D0
:10947000D2F82814C3F84C15D2F82C14C3F85015A0
:10948000D2F83014C3F85415D2F83414C3F8601568
:10949000D2F83814C3F86415D2F83C14C3F8681530
:1094A000D2F84014C3F86C15D2F84424C3F87025E0
:1094B000FFF79CFF10B1384B384A1A60FFF796FF50
:1094C00018B1374BFB22C3F81825FFF78FFF48B1BF
:1094D0003449354B0A681B6822F00F0203F00F0372
:1094E00013430B60FFF782FF18B1304B4FF400724B
:1094F0001A604FF08043D3F80024D20744BF6FF0C6
:109500000102C3F800242A4AD2F8883043F47003D9
:10951000C2F88830BFF34F8FBFF36F8F4FF0102327
:10952000D3F80022002A03DBD3F80432002B2FDA11
:10953000204B0122C3F80425D3F80024002AFBD0D5
:109540004FF010221221C2F80012D3F80024002A92
:10955000FBD04FF010231222C3F80422154B1A46F9
:10956000D3F800140029FBD00021C3F80415D2F869
:109570000034002BFBD0BFF34F8F0D490E4BCA6850
:1095800002F4E0621343CB60BFF34F8F00BFFDE7EF
:109590000A4B0B4A1A6008BD8C56004048810300F4
:1095A00000F00040E40E00405802001040960240D7
:1095B00000ED00E000E001400400FA05E094002026
:1095C0000090D0030649074A074B9B1A03DD043B72
:1095D000C858D050FBDCFFF719FFFCF731FE000044
:1095E0005C0E0300B8940020A09E0020FEE7FEE77A
:1095F000FEE7FEE7FEE7FEE7FEE7FEE7FEE7FEE743
:1096000008B50021044602F0E9F9044B1868C36B61
:1096100003B19847204605F09BFA00BFE80A030013
:10962000024B19687C3100F003B800BFE4940020BD
:109630002DE9F041D0E900670C463046614A00232D
:10964000394605F01BFF5F4A00F52F2800233046FE
:10965000394605F013FF002AB8BF02F5A8325A4870
:109660005A49B8BF02F5C072A0FB02304FEAD020C1
:109670004FF4616303FB1022B4BF08F66B2508F6B4
:109680006C25534BA060E81C83FB0063A1FB0261C7
:109690001E18C317C3EBA6034909C3EBC303C31AC0
:1096A000C1EB011648BF0733A2EB8602002DC4E9C7
:1096B0000021A3617BDB474BEA1783FB0513C2EB59
:1096C000E3324548454B4649DFF828C1454F00FB8A
:1096D00002508608A3FB065300EBD323A1FB0656DA
:1096E0000509A3EBD613ACFB0565DFF80CC13E4EB4
:1096F000A3EB1513A7FB0375ACFB03C700EBD73037
:109700009F085B1BA1FB077105EB5303A0EBD11076
:109710001B0A40F26D1101FB130000EB80010231C6
:10972000A6FB0151C90909294FF4C87701EBC1050E
:1097300007FB02322D4E8CBF6FF00907022705EBA5
:10974000051502353944A6FB0565012998BF01328C
:10975000461CB0F5997FA6EB950525D29E0718D03B
:10976000234EA6FB0376F6094FF4C87707FB1633A2
:10977000B3FA83F6760900F13B033344A2F26C722C
:10978000002020626261E361C4E903512046BDE824
:10979000F081174EA6FB03767609642707FB163681
:1097A000002EDDD00126E6E7A0F59973E6E7A5F5E2
:1097B0000E33084AA3F52C7382FB0312DB17C3EBAD
:1097C000E2327EE780510100C5B3A2918988888882
:1097D00093244992BD066B394FC5FDFF7F206B393D
:1097E000D97CC65961F31967D7802BD6CDCCCCCCA8
:1097F0001F85EB5141D672001F2BD3E570B50D4E7E
:109800000D4D761BB61006D00024013455F8043BEC
:109810009847A642F9D1094E094D761B05F0FEFF87
:10982000B61006D00024013455F8043B9847A642F0
:10983000F9D170BD909E0020909E00209C9E00203B
:10984000909E0020044B054A1B685B6B002B08BFF1
:10985000134693F828017047E494002010990020E3
:1098600082B049B15AB16BB113780B601278101CF9
:1098700018BF012002B0704701A9002AF3D1104699
:1098800002B070476FF00100F4E700BF844641EA80
:10989000000313F003036DD1403A41D351F8043B68
:1098A00040F8043B51F8043B40F8043B51F8043BBA
:1098B00040F8043B51F8043B40F8043B51F8043BAA
:1098C00040F8043B51F8043B40F8043B51F8043B9A
:1098D00040F8043B51F8043B40F8043B51F8043B8A
:1098E00040F8043B51F8043B40F8043B51F8043B7A
:1098F00040F8043B51F8043B40F8043B51F8043B6A
:1099000040F8043B51F8043B40F8043B51F8043B59
:1099100040F8043B51F8043B40F8043B403ABDD2C8
:10992000303211D351F8043B40F8043B51F8043B6A
:1099300040F8043B51F8043B40F8043B51F8043B29
:1099400040F8043B103AEDD20C3205D351F8043BF9
:1099500040F8043B043AF9D2043208D0D2071CBFC5
:1099600011F8013B00F8013B01D30B8803806046EE
:10997000704700BF082A13D38B078DD010F0030364
:109980008AD0C3F10403D21ADB071CBF11F8013BD4
:1099900000F8013B80D331F8023B20F8023B7BE723
:1099A000043AD9D3013A11F8013B00F8013BF9D24E
:1099B0000B7803704B7843708B78837060467047E8
:1099C000F0B4860743D0541E002A3ED0CAB20346E4
:1099D00002E014F1FF3438D303F8012B9D07F8D1CE
:1099E000032C2BD9CDB245EA05250F2C45EA0545B8
:1099F00016D9A4F110073F0903F1200606EB07165C
:109A000003F1100242E9045542E902551032B24214
:109A1000F8D104F00F040137032C03EB07130DD921
:109A20001E462246043A032A46F8045BFAD8221F4F
:109A300022F003020432134404F003042CB1C9B22F
:109A40001C4403F8011B9C42FBD1F0BC7047144638
:109A50000346C5E70FB400B5074983B004AB0868F7
:109A600053F8042B8168019300F0BAF903B05DF854
:109A700004EB04B0704700BFE494002000290CBF41
:109A8000022200224FF4806300F000B82DE9F04379
:109A90005D4C256883B00446884616461F4615B1BE
:109AA000AB6B002B7ED0022E05D0012E00F2A980D8
:109AB000002FC0F2A680636EDA0735D5214628460E
:109AC00003F054F8216B41B104F14003994202D0F4
:109AD000284603F049F900232363B4F90C3000222F
:109AE0001806A261626061D423F44A6323F0030381
:109AF000022EA3811FD10025616E002004F14302D4
:109B000043F00203A060C9074FF00100A381226067
:109B1000C4E9042004D49B0502D4A06D03F056FAD6
:109B2000284603B0BDE8F083A3899B05C6D4A06D89
:109B300003F04AFAC2E701AB6A462146284603F021
:109B400047FAA3891843A081002F36D1009F3846D9
:109B500003F0B6FA8046002842D0A38943F0800380
:109B6000A381AB6B7BB3009AB4F90C30C4F80080CE
:109B7000BA421CBF43F40063A381012E04BF43F02B
:109B80000103A3819BB213F00802C4E904871ED12C
:109B9000A260656E15F00105BDD00025284603B012
:109BA000BDE8F083284603F03DF87CE721692846AC
:109BB00003F0DAF8B4F90C3096E7B8F1000FC6D02C
:109BC000AB6B002BCFD1284603F02CF8CBE7DA079C
:109BD00004D57F420022A761A260DAE7A760D8E738
:109BE000DDF80090B94504D1B4F90C304FF0FF35E1
:109BF00082E7484603F064FA80460028F4D04F46D6
:109C0000ABE74FF0FF358BE7E494002080EA0102D8
:109C1000844612F0030F4FD111F0030F32D14DF8EB
:109C2000044D11F0040F51F8043B0BD0A3F10132A5
:109C30009A4312F0803F04BF4CF8043B51F8043BB8
:109C400016D100BF51F8044BA3F101329A4312F030
:109C5000803FA4F101320BD14CF8043BA24312F037
:109C6000803F04BF51F8043B4CF8044BEAD0234634
:109C70000CF8013B13F0FF0F4FEA3323F8D15DF8E6
:109C8000044B704711F0010F06D011F8012B0CF8AE
:109C9000012B002A08BF704711F0020FBFD031F826
:109CA000022B12F0FF0F16BF2CF8022B8CF80020AD
:109CB00012F47F4FB3D1704711F8012B0CF8012B30
:109CC000002AF9D1704700BF00000000000000002A
:109CD0000000000000000000000000000000000084
:109CE0000000000000000000000000000000000074
:109CF0000000000000000000000000000000000064
:109D000090F800F06DE9024520F007016FF0000CBB
:109D100010F0070491F820F040F049804FF0000463
:109D20006FF00700D1E9002391F840F000F108003E
:109D300082FA4CF2A4FA8CF283FA4CF3A2FA8CF376
:109D40004BBBD1E9022382FA4CF200F10800A4FADD
:109D50008CF283FA4CF3A2FA8CF3E3B9D1E9042331
:109D600082FA4CF200F10800A4FA8CF283FA4CF368
:109D7000A2FA8CF37BB9D1E9062301F1200182FA22
:109D80004CF200F10800A4FA8CF283FA4CF3A2FA28
:109D90008CF3002BC6D0002A04BF04301A4612BA36
:109DA000B2FA82F2FDE8024500EBD2007047D1E939
:109DB000002304F00305C4F100004FEAC50514F0C8
:109DC000040F91F840F00CFA05F562EA05021CBF99
:109DD00063EA050362464FF00004A9E700000000B3
:109DE0002DE9F04FD7B01C4689461746054603902B
:109DF00003F0D8F8036816931846FFF781FF08941C
:109E000015901DB1AB6B002B00F00781D9F86410E1
:109E1000B9F90C20C80793B202D4990540F11F810B
:109E20009E040AD4D9F8641042F4005321F400517E
:109E3000A9F80C30C9F864109BB21D0740F1B2803C
:109E4000D9F81020002A00F0AD8003F01A020A2A87
:109E500000F0C98000239FED867B1093CDE92B3362
:109E60001793CDE919331B93189305932DAB2A93C0
:109E70009B463B78CDF81C908DED127B002B00F0BB
:109E80005982252B3C4602D11DE0252B03D014F826
:109E9000013F002BF9D1E51B8DB1DDE92B320133F8
:109EA0002A44072BCBF80070CBF80450CDE92B32B5
:109EB00000F3CA800BF1080B059B2B440593237814
:109EC000002B00F0378200236678069398468DF8C1
:109ED0008B3004F1010A4FF0FF392B250AF1010AFA
:109EE000A6F120035A2B00F22A84DFE813F0AA031C
:109EF000280428049C02280428042804A702280413
:109F00002804C602D2022804D702DC022804F60282
:109F10006D026D026D026D026D026D026D026D02C9
:109F20006D0228042804280428042804280428048E
:109F3000FB0228043C03F303FB02FB02FB022804A0
:109F4000280428042804EE03280428049A0028047E
:109F500028042804500328047903280428049003C3
:109F60002804280428042804280428042804280491
:109F7000FB0228043C03C500FB02FB02FB02D103E9
:109F8000C50070002804B5032804C2039C00DE034A
:109F900070002804500372002C02280428047C025C
:109FA000280472004946039801F0A8FCA0B1D9F832
:109FB0006430D80704D4B9F80C30990540F1B78360
:109FC0004FF0FF330593059857B0BDE8F08F48F088
:109FD00020089AF8006081E7B9F80C3003F01A0203
:109FE0000A2A7FF437AFB9F90E20002AFFF632AF04
:109FF000D9F86420D20705D49B0503D4D9F85800BA
:10A0000002F0E4FF23463A464946039801F026FC55
:10A010000590059857B0BDE8F08F039802F002FE56
:10A02000F4E648F0100818F0200F00F06C83089C4C
:10A03000073424F00703D3E9004503F1080208922E
:10A0400028F4806300228CE12AAA0799039803F080
:10A050004DFF002841F076830DF1B40B2CE7D9F8C1
:10A06000580002F0B1FFB9F90C2093B2D8E600BF56
:10A07000000000000000000043469F0640F12F83CF
:10A08000089C073424F00704D4E9000104F1080215
:10A09000089204460D46002871F1000205DA2D22CF
:10A0A000644265EB45058DF88B2056AAB9F1FF3F58
:10A0B000049200F0B284012254EA050123F08008E2
:10A0C00040F05981B9F1000F40F01986002A40F0A4
:10A0D000088513F0010356AF099302D0302307F827
:10A0E000013D00230A930F9314931193099B9DF84C
:10A0F0008B204B45B8BF4B46049312B1049B0133F0
:10A10000049318F002030B9302D0049B02330493D0
:10A1100018F084032C9C0E933FD1069B04995D1A82
:10A12000002D3ADD102D2B9A29DD59462046209628
:10A130001023039C079EBB4604E0103D102D01F147
:10A14000080118DD0132BA4F1030072ACDE92B2063
:10A15000C1E90073F1DD2AAA314620460C9303F0D1
:10A16000C5FE002840F03D84103D102DDDE92B2078
:10A170002DA90C9BE6DC209E5F4604468B460132EF
:10A18000AB4B2C44072ACDE92B24CBE9003500F357
:10A19000FF849DF88B200BF1080B72B12B9A0132D2
:10A1A00001340DF18B000121072ACDE92B24CBE9E5
:10A1B000000100F318840BF1080B0B9B6BB12B9B78
:10A1C0000133023423A90222072BCDE92B34CBE93A
:10A1D000001200F315840BF1080B0E9B802B00F08E
:10A1E0003183099BA9EB0305002D37DD102D2B9A38
:10A1F000904B28DD59462046BB464FF010093746A4
:10A200001C46079E04E0103D102D01F1080115DDEC
:10A2100001321030072ACDE92B20C1E90049F2DDD7
:10A220002AAA3146039803F061FE002840F0D98342
:10A23000103D102DDDE92B202DA9E9DC3E462346FB
:10A240005F4604468B4601322C44072ACDE92B2475
:10A25000CBE9003500F3EF830BF1080B18F4807F96
:10A2600040F080822B9B099ACBF800700133144494
:10A27000072B2C94CBF804202B9300F392830BF143
:10A28000080B18F0040F3BD0069B049A9D1A002D72
:10A2900036DD102D2B9B21DD1026039FDDF81C8061
:10A2A00004E0103D102D0BF1080B17DD0133604A5F
:10A2B0001034072BCDE92B34CBE90026F1DD2AAA97
:10A2C0004146384603F012FE002840F06C85103DF0
:10A2D000102DDDE92B340DF1B40BE7DC0133544ACA
:10A2E0002C44072BCDE92B34CBE9002508DD2AAA25
:10A2F0000799039803F0FAFD002840F0E9822C9CAE
:10A300000499DDE905328A42ACBF9B185B180593BE
:10A31000002C40F0D58200232B930A9B1BB10A9995
:10A32000039802F021FD0DF1B40B57463B78002B4A
:10A330007FF4A7AD2C9BDDF81C90002B41F0E7804B
:10A3400000232B93CBE243469A0640F14E81089CB2
:10A35000073424F0070202F10801D2E90045089110
:10A36000012200218DF88B10B9F1FF3F56A904910D
:10A370007FF4A2AE9846012A00F05083022A00F032
:10A380001B8356A900E03946E20842EA4572E80814
:10A3900004F0070305461446303354EA050201F879
:10A3A000013C01F1FF37EED118F0010F00F01483EA
:10A3B000302B00F01183049A02393023521A07F827
:10A3C000013C09920F468CE6A6F1300300221AF8F0
:10A3D000016B02EB820203EB4202A6F13003092B70
:10A3E000F5D906927CE5144B179318F0200F00F076
:10A3F0001481089C073424F00703D3E9004503F1D6
:10A400000802089218F0010F09D054EA050306D09B
:10A4100030238DF88D6048F002088DF88C3028F4D8
:10A42000806302229DE748F001089AF8006055E534
:10A43000400B0300500B03000C0B0300039E30463F
:10A4400002F0B0FD436818931846FFF759FC1B90C3
:10A450000446304602F0A6FD83681A93002C3FF4B0
:10A46000B8AD9AF80060002B3FF438AD1B78002B94
:10A470003FF434AD48F4806830E5089B9AF80060FA
:10A480001A680692002A03F10403C0F29786089323
:10A4900024E58DF88B509AF800601FE59AF800606B
:10A4A00048F004081AE59AF800602A2E0AF1010221
:10A4B00001F0B081A6F13003092B92464FF000095C
:10A4C0003FF60EAD1AF8016B09EB890903EB490958
:10A4D000A6F13003092BF5D902E548F080089AF877
:10A4E0000060FBE4089C073424F0070494ED007B33
:10A4F00052EC171B22F000431D938DED1C7A08349B
:10A50000DDE91C014FF0FF32BA4B08948DED127B50
:10A5100004F076FF002840F06F844FF0FF32B54B17
:10A52000DDE91C0104F04EFF002840F065840022A4
:10A530000023DDE9120104F03BFF002840F05B85B9
:10A540009DF88B20AC4FAD4B0020032104910A9065
:10A5500028F08008472ED8BF1F46099181460F90EA
:10A5600014901190C9E50898002301688DF88B308C
:10A570001A468DF8F4100123011D04930A929146A6
:10A580000F9214921192CDE908133DAFB9E5089BE3
:10A590001F6800258DF88B501C1D002F00F0398698
:10A5A000B9F1FF3F00F011874A462946384603F0CB
:10A5B0003FF80A90002800F0E7850A9BDB1B09930F
:10A5C000A94623EAE37308940493CDF82890CDF8C4
:10A5D0003C90CDF85090CDF844909DF88B208CE5C0
:10A5E00048F010039A063FF5B2AE089ADF0602F172
:10A5F000040100F17E835D06089A00F1E4849C0565
:10A6000040F177831478089100250122A9E67C4B5C
:10A61000179318F0200F7FF4ECAE089A18F0100F83
:10A6200002F1040340F0548318F0400F089A40F000
:10A63000D08418F4007F00F04B8314780893002531
:10A64000E0E69DF88B309AF80060002B7FF446AC72
:10A6500020238DF88B3041E49AF800606C2E03BF04
:10A660009AF8016048F020080AF1010A48F0100841
:10A6700034E4089A18F0200F52F8043B089200F0D6
:10A68000A183059A1046D117C3E9000157464DE64C
:10A690009AF80060682E03BF9AF8016048F40078C9
:10A6A0000AF1010A48F0400818E40899554B0C6873
:10A6B000179347F630020431ADF88C2048F00203BE
:10A6C00008910025022278264BE648F008089AF8FF
:10A6D000006003E448F010039F063FF5D1AC0899F1
:10A6E000DD0601F1040200F1FD825C06089900F12B
:10A6F0007584980540F1F68291F900400892E517BB
:10A7000020462946C7E4089A18F0100F02F1040306
:10A7100040F0E38218F0400F089A40F0678418F484
:10A72000007F00F0DA8214780893002588E4D9F8D5
:10A73000580002F04BFC4FF0FF33059343E4002E2A
:10A740003FF4F8AD002301211A4604918DF8F4601E
:10A750008DF88B300A9399460F93149311930991B6
:10A760003DAFCEE4652E40F3CA8000220023DDE930
:10A77000120104F013FE002800F069812B9B224A8D
:10A78000CBF80020013301340122072BCDE92B3413
:10A79000CBF8042000F306840BF1080B249B109ADD
:10A7A0002C9C934203DB18F0010F3FF46AAD2B9B06
:10A7B000169ACBF80020159ACBF8042001331444E4
:10A7C000072BCDE92B3400F317850BF1080B109BF9
:10A7D0005D1E002D7FF755AD102D2B9A0B4B40F3CE
:10A7E000E782194610262346039FDDF81C900C468D
:10A7F00014E000BFFFFFEF7F000B0300FC0A030023
:10A80000200B03000C0B03003C0B0300500B030058
:10A810000BF1080B103D102D40F3C78201321033AD
:10A82000072ACDE92B23CBE90046F1DD2AAA4946C8
:10A83000384603F05BFB00284CD1DDE92B230DF1FA
:10A84000B40BE7E7069B049A9D1A002D7FF7C9AC6D
:10A85000102D2B9ABC4B27DD59462046BB461C4683
:10A860003746079E04E0103D102D01F1080116DD6A
:10A87000013210301023072ACDE92B200C604B60E9
:10A88000F1DD2AAA3146039803F030FB002840F09E
:10A89000A880103D102DDDE92B202DA9E8DC3E46D7
:10A8A00023465F4604468B4601322C44072ACDE9F5
:10A8B0002B24CBE9003500F392820BF1080B90E4D6
:10A8C0002AAA0799039803F011FB00283FF423AD4F
:10A8D000DDF81C900A9911B1039802F045FAD9F8F5
:10A8E0006420B9F80C30D00702D4990540F1D0812A
:10A8F0005A063FF565AB059857B0BDE8F08F109A42
:10A900002B9B012A04F1010403F101050BF1080658
:10A9100040F31C810123072DCBF80070CDE92B54A7
:10A92000CBF8043000F3BB81159B169A691C1C44BC
:10A9300007290B91CDE92B14C6E9002300F3BB8155
:10A9400008360B9A531C1D460995109D0E93002244
:10A950000023DDE9120105F1FF3906F1080B04F0CF
:10A960001DFD002840F0C280099DC6F80490013703
:10A970004C44072D37602C942B9500F3F9800B9AEB
:10A9800006F1100302325E4609929B46199A7260E4
:10A990001444099A2C9426AB072A2B9233607FF734
:10A9A00070AC2AAA0799039803F0A0FA00288FD167
:10A9B0002C9C0DF1B40B64E4179856AF230904F0F6
:10A9C0000F0143EA05732A091C461546435C07F844
:10A9D000013D54EA0503F1D1049BDB1B0993FFF70A
:10A9E00080BBB14676E72AAA0799039803F07EFA5E
:10A9F00000287FF46DAF2C9C0DF1B40BFFF7DDBB8D
:10AA00002AAA0799039803F071FA00287FF460AF2F
:10AA10002C9C0DF1B40BFFF7E0BB9846002D08BF4E
:10AA20000A2C80F0708156AF3034012307F8014DB5
:10AA30000993FFF756BB2AAA0799039803F056FA21
:10AA400000287FF445AF2C9C0DF1B40B06E4249B49
:10AA5000002B40F37382DDE910239342A8BF134615
:10AA6000002B1D460DDD2B9BCBF8007001332C44D1
:10AA7000072B2C94CBF804502B9300F3C1820BF1DD
:10AA8000080B119B002DA8BF5B1B002B1D4640F33C
:10AA90009980102D2B9A2C4B40F3DB8318462146CE
:10AAA0005B461026BB46DDF80C90079C074604E089
:10AAB0000833103D102D40F3C78301321031072AAF
:10AAC000CDE92B21C3E90076F2DD2AAA21464846CA
:10AAD00003F00CFA002840F0A584DDE92B212DAB12
:10AAE000E7E7CDF8249056AFFFF7FBBAB9F1000FB6
:10AAF0007FF74CAFB9F1100F134B40F3598619464D
:10AB0000224633461027DDF80CB0079C0E9D0E46FA
:10AB100007E00833A9F11009B9F1100F40F353838E
:10AB200001351032072DCDE92B52C3E90067F0DD66
:10AB30002AAA2146584603F0D9F9002840F0728429
:10AB4000DDE92B522DABE5E7500B030018F0010FA8
:10AB50007FF4E0AE0122072DCBF80070CDE92B5435
:10AB6000CBF8042004DC023309930BF1100B0DE742
:10AB70002AAA0799039803F0B9F900287FF4A8AE30
:10AB8000DDE92B34013309930DF1BC0B2DAEFDE64D
:10AB90002AAA0799039803F0A9F900287FF498AE30
:10ABA0009DF88B202C9C0DF1B40BFFF7F6BA2AAA66
:10ABB0000799039803F09AF900287FF489AE2C9C3A
:10ABC0000DF1B40B119B18F4806F3B44994640F093
:10ABD0005783249B109A934249DB18F0010F46D10A
:10ABE000109ABD18A5EB0905D31A9D42A8BF1D46B2
:10ABF000002D0DDD2B9ACBF8009001322C44072A52
:10AC00002C94CBF804502B9200F362840BF1080BC8
:10AC1000002DACBF5D1B1D46002D7FF732AB102D04
:10AC20002B9AC54B40F3C480194610262346039F38
:10AC3000DDF81C900C4605E00BF1080B103D102DC3
:10AC400040F3B38001321033072ACDE92B23CBE93F
:10AC50000046F1DD2AAA4946384603F047F90028A4
:10AC60007FF438AEDDE92B230DF1B40BE6E72B9A28
:10AC70001699CBF800101599CBF8041001320C444A
:10AC8000072A2C942B9200F38C820BF1080BA7E778
:10AC9000D9F8580002F09AF9B9F80C3028E62AAA37
:10ACA0000799039803F022F900287FF411AEDDE93B
:10ACB0002B542DAE38E62AAA0799039803F016F90B
:10ACC00000287FF405AEDDE92B342DAE0B9338E67A
:10ACD000146808930025FFF795BB146808930025B6
:10ACE000FFF7AEB90C680892E51720462946FFF732
:10ACF000D2B91468089101220025FFF732BB012A5E
:10AD00007FF43CAB8FE608F480630022CDE909A60E
:10AD1000CDF82C8056AF9246DDF868801E460AE0DA
:10AD20000023204629460A2204F0F8FB04460D467B
:10AD300054EA050329D00A2200232046294604F0BC
:10AD4000EDFB303207F8012C0AF1010A013F002E19
:10AD5000E6D098F800309A45E2D1BAF1FF0FDFD083
:10AD6000002D08BF0A2CDBD31B9B1899FF1A1A462B
:10AD7000384603F04DF898F80130002B00F0968427
:10AD800008F101084FF0000ACAE7049BCDF868807B
:10AD9000DB1BCDF840A00A9EDDF824A0DDF82C8056
:10ADA0000993FFF79EB9C14694E521461C460B4620
:10ADB00001322C44072ACDE92B24CBE900357FF75B
:10ADC0005EAAEEE518F0100F40F0F88018F0400F82
:10ADD00000F05183059A1A805746FFF7A7BA2AAAAE
:10ADE0000799039803F082F800287FF471AD2C9C3A
:10ADF0000DF1B40BFFF7F5B9DDE9120102460B4680
:10AE000004F0FEFA002840F09184612E00F01181D8
:10AE1000412E00F0778348F4807326F02002B9F1C8
:10AE2000FF3F0E930492139B00F02D84472A00F0FD
:10AE30002484002BC0F2F9829DED127BCDE90A003B
:10AE40008DED1E7B662E00F0EB83462E00F07E8497
:10AE5000049B0398452B0CBF09F101054D4628AA18
:10AE600025ABCDE90032022124AB2A469DED1E0B15
:10AE700000F0C2FE672E074640F09C8418F0010FD8
:10AE800040F0F983289B4046DB1BDDF838801093A7
:10AE9000249B1193049B472B00F0E781049B462BD6
:10AEA00000F000830499119BF2B2412908BF0F32D0
:10AEB00003F1FF3306BFD2B201210021002B2493FE
:10AEC000B8BF119B8DF89820BABFC3F101032D22A2
:10AED0002B22092B8DF8992000F3F983002940F0EB
:10AEE000878430228DF89A200DF19B023033137045
:10AEF000531C26AA9B1A109A1993012A13440993EA
:10AF000040F34284099B159A1344099300230F933D
:10AF100014931193099B20F4806023EAE37340F4B7
:10AF2000807804930B9B002B40F0758299469DF826
:10AF30008B20FFF7E2B800BF500B03002B9ABD49EE
:10AF4000CBF80010013201340121072ACDE92B246E
:10AF5000CBF8041060DC0BF1080B2BB9109A1AB96E
:10AF600018F0010F3FF48DA92B9A1699CBF8001019
:10AF70001599CBF8041001320C44072A2C942B921B
:10AF800000F382820BF1080B002BC0F2E782109BCA
:10AF900001321C44072ACDE92B24CBE900737FF74B
:10AFA0006EA9FEE42AAA0799039802F09FFF0028E1
:10AFB0007FF48EAC0DF1B40BFFF7F0BB059A1A606D
:10AFC0005746FFF7B3B91488089100250122FFF70F
:10AFD000C8B9148808930025FFF714BAB1F90040E6
:10AFE0000892E51720462946FFF755B814880893BC
:10AFF0000025FFF725B82D228DF88B20FFF7A2BA88
:10B000002AAA0799039802F071FF00287FF460AC28
:10B010002C9C0DF1B40B34E52AAA0799039802F091
:10B0200065FF00287FF454AC249B2C9C0DF1B40BDD
:10B0300093E730238DF88C307823B9F1630F8DF8C6
:10B040008D3048F0020400F3B08248F481730E930F
:10B0500026F0200304930022139B0A92A0463DAFE2
:10B06000002BC0F2E3819DED127B8DED1E7B002352
:10B070000B93612E00F05582412E7FF4E3AE24A89D
:10B080009DED1E0B02F03AFE00224FF07F5351EC73
:10B09000100B03F01BFF00220023CDE90C0104F08C
:10B0A0007DF9002840F00583634B0993CDE90FA695
:10B0B00009F1FF34CDF850902197B946CDF844B04E
:10B0C000CDF88080DDF824A0DDE90C6703E004F012
:10B0D00065F920BBA9460022584B3046394603F09B
:10B0E000F5FE0F46064604F0A1F9804603F084FE03
:10B0F00002460B463046394603F030FD4D461AF8FD
:10B1000008C005F801CBB4F1FF3FA34606460F4641
:10B110004FF000024FF0000304F1FF34D7D1304666
:10B1200039460022464BDDF83CA0109ECDF83CB0DD
:10B130004446CDF84090DDF88080DDF85090DDF891
:10B1400044B0219FCDE90C0104F050F9002840F0F3
:10B150007681DDE90C010022394B04F01FF910B1B2
:10B16000E20700F16C810F9B002B07DB0F9B013383
:10B170002B44302205F8012BAB42FBD1EB1B4046A0
:10B180001093DDF8388083E6CDF81090CDF8249048
:10B19000089481460F90149011909DF88B20FEF733
:10B1A000ACBF2AAA0799039802F0A0FE00287FF4FA
:10B1B0008FAB249B2C9C0DF1B40B11E552420692EF
:10B1C0000893FFF76DB9144632461E4613462A46C9
:10B1D0000132099206F10802C6E90039099B2B9356
:10B1E0004C44072B2C943FF7C3AC0133099302F175
:10B1F000080B1646FFF7CABB2AAA0799039802F064
:10B2000075FE00287FF464AB2C9C0DF1B40BFFF7A6
:10B21000DEBA4B46062B28BF0623B9460F97149774
:10B2200011970A973A460493CDE90843054FFEF774
:10B2300064BF00BF3C0B0300200B03000000304044
:10B240000000E03F340B03000C4639465F469B4646
:10B250000B4601322C44072ACDE92B24CBE90035DB
:10B260003FF7A5AC0BF1080BACE4119BDA1C02DB39
:10B27000994580F2B580023E26F02003049311E642
:10B28000109BCDF838805A46DDE91A8BFB18CDF8B3
:10B290002CA00C97AF4EDDF81CA009934F46DDF8AB
:10B2A0000C902146149B002B5BD00F9B002B54D19C
:10B2B000149B013B08F1FF3814932B9B18981060E6
:10B2C00001335944072B2C91C2F804B02B9368DC4E
:10B2D0000832099898F80030C51B9D42A8BF1D464A
:10B2E000002D0BDD2B9B176001332944072B2C917C
:10B2F00055602B935EDC98F800300832002DACBF0F
:10B300005D1B1D46002D26DD102D2B983CDD1024E5
:10B3100003E00832103D102D36DD013010310728D2
:10B32000CDE92B01C2E90064F3DD2AAA5146484663
:10B3300002F0DCFD002850D1DDE92B012DAAE9E760
:10B340002AAA5146484602F0D1FD002845D198F876
:10B3500000302C992DAA1F44A4E70F9B013B0F93AB
:10B36000ABE70F9B002BF8D1B946109B0C9FCDF893
:10B370006880FB189945DDF82CA0DDF838809346ED
:10B380000C4628BF994624E4013029440728CDE91A
:10B390002B01C2E90065D3DC98F8003008321F4465
:10B3A00080E72AAA5146484602F0A0FDA8B92C9988
:10B3B0002DAA8EE72AAA5146484602F097FD60B9A9
:10B3C00098F800302C992DAA98E73846FEF798FC9B
:10B3D000A94603460990FFF7F4B8D146FFF77ABAB9
:10B3E000109B1946119B994200F38280C40740F1DB
:10B3F0006B81159A13440993410503D5119B002BCA
:10B4000000F3E680099B23EAE37304936726002395
:10B410000F93149386E52D228DF88B204FF00009B1
:10B42000FEF76CBEA146FFF755BA0A90DDE912128D
:10B4300002F100431F932D231E910B9319E6109BDD
:10B440002893099B15F8012CD97B91422B4609D1F1
:10B45000302003F8010C289B5A1E289213F8012C67
:10B460009142F6D0392A0BBF099A0132927AD2B2B0
:10B4700003F8012C82E618F4007F3FF49FAD059A93
:10B480001A705746FEF752BF2AAA0799039802F08E
:10B490002DFD00287FF41CAA249BDDE92B240DF14F
:10B4A000B40B71E5119B002B40F36481119BB9F142
:10B4B000000F40F00381C60700F100810993662662
:10B4C000430500F18680099B23EAE37304939EE71A
:10B4D0002AAA0799039802F009FD00287FF4F8A929
:10B4E000249B109A2C9CD31A0DF1B40BFFF790BB40
:10B4F000109B159A13440993119B002B40F349812B
:10B500006726DDE730238DF88C30582395E50398C6
:10B510002AAA494602F0EAFC00287FF4E0A9FEF7D7
:10B520000FBF24A89DED1E0B02F0E8FB00224FF098
:10B530007F5351EC100B03F0C9FC00220023CDE92E
:10B540000C0103F02BFF08B101232493024B099354
:10B55000ACE500BF500B03000C0B03005D42103341
:10B56000B94B80F29780194610262346DDF80C90DF
:10B570000C4605E00BF1080B103D102D40F38780C1
:10B5800001321033072ACDE92B23CBE90046F1DD48
:10B590002AAA0799484602F0A9FC00287FF498A936
:10B5A000DDE92B230DF1B40BE6E709F10101039866
:10B5B00001F096FD0746002800F03B8148F48173B6
:10B5C0000E9326F020030493A046139B0A9047E5B0
:10B5D00067261A9800220F9214920378119AFF2B73
:10B5E0000CD093420ADA4178D21AA9B1149B0133E4
:10B5F00014930B46FF2B00F10100F2D11192149B22
:10B600000F9A09991A9013441B9A02FB031309938A
:10B6100023EAE373049385E40F9901310F91DEE788
:10B6200028AA25ABCDE90032032124AB4A469DED83
:10B630001E0B039800F0E0FA4D46074600EB0904A4
:10B640003B78302B00F0BE80249D2C440022002348
:10B65000DDE91E0103F0A2FE08B1234613E4289B96
:10B66000A342BFF410AC30215A1C28921970289BB9
:10B670009C42F9D807E47C19E8E7B9F1000F00F023
:10B6800092800A90ECE40A904FF00609E8E4214623
:10B690001C460B4601322C44072ACDE92B24CBE96A
:10B6A000003500F3A9800BF1080B70E49A46FFF710
:10B6B00037BB01232493654B0993F7E4159A134490
:10B6C0004B4409936626FBE6119B099394E60DF122
:10B6D000A70C64465E4D00E01446A5FB0312D20899
:10B6E00002EB8201A3EB410303F130011346092B66
:10B6F00004F8011C04F1FF32EEDC3033023CDBB213
:10B70000A44502F8013C40F290800DF19A041146E4
:10B7100001E011F8013B04F8013B8C45F9D12AAB5B
:10B720009B1A0DF19A021344FFF7E3BB139B494F99
:10B73000002BB6BF2D229DF88B208DF88B20464B19
:10B74000FEF702BFDDF81C90FFF7C9B828AA25ABA9
:10B75000CDE90032032124AB4A469DED1E0B039830
:10B7600000F04AFA4D460746462E07EB05043FF423
:10B7700067AF6BE7B9F1000F31D1C5072FD40123B3
:10B7800004930993662642E6C3077FF5BFABFFF734
:10B79000B9BB099AC3F101031A4422EAE273099280
:10B7A0000493672633E6CDF828904FF0010957E45B
:10B7B0005A4611E5472E7FF45EAF18F0010F3FF4B3
:10B7C00061ABD1E700220023DDE91E0103F0E6FDB5
:10B7D00000287FF439AFC5F10105249535E7159BA5
:10B7E00001334B44099323EAE373049366260EE680
:10B7F0000DF19A02FFF77ABB2AAA0799039802F083
:10B8000075FB00287FF464A8DDE92B240DF1B40B4F
:10B81000FFF7BDBB08999AF801600B6843EAE3792A
:10B820000B1D92460893FEF759BB0DF19A03FFF7E3
:10B8300060BBDDF81C90B9F80C3043F04003A9F868
:10B840000C30FFF74CB800BF500B0300200B030077
:10B85000CDCCCCCC080B0300040B03002DE9F04148
:10B860000C46ADF58D6D8989666EE589199621F0D6
:10B8700002010646E069ADF80C1017464FF48061EE
:10B88000626AADF80E5098461AAD0023079016A8CC
:10B8900009920693009504950291059101F090FBA1
:10B8A00043463A4669463046FEF79AFA051E07DBDC
:10B8B0003046694601F05AF9002818BF4FF0FF35AD
:10B8C000BDF80C305B0603D5A38943F04003A38188
:10B8D000169801F077FB28460DF58D6DBDE8F081D7
:10B8E00021B1FF2A04D80A7001207047084670472A
:10B8F0008A2303604FF0FF30704700BF38B5314BEB
:10B900001B6805460C4613B19A6B002A3AD0B4F96D
:10B910000C2093B218070CD52069A8B113F00102CE
:10B9200020D0636900225B42A361A26000B30020C3
:10B9300038BDD9063ED5580728D4206942F00803FF
:10B94000A3819BB20028E9D103F42072B2F5007FF5
:10B95000E4D02846214601F069FBA389206913F051
:10B960000102DED1990758BF6269A2600028DED1CA
:10B97000B4F90C301A06DBD543F04003A3814FF035
:10B98000FF3038BD184601F04DF9C0E7216B51B1C9
:10B9900004F14003994204D0284601F0E5F9B4F9D6
:10B9A0000C200023236300232069636022F024021B
:10B9B0002060C3E742F0400209232B604FF0FF30C4
:10B9C000A28138BDE4940020024B13B1024800F07C
:10B9D00079B870470000000095CC02002DE9F04FC7
:10B9E000354B85B00F460390186801F0EDFA334BE4
:10B9F0001B68019303F5A4730293B946019BD3F826
:10BA000048613EB3DDF808A04FF001087468651E78
:10BA10000FD4013406EB84040027B9F1000F20D0C5
:10BA2000D4F800314B451CD0013D6B1CA4F104043B
:10BA3000F3D1234B73B1D6E90032002A34D1002B65
:10BA400032D03046CAF8003001F042FBDAF800602C
:10BA5000002EDBD1184B186805B0BDE8F04F01F09F
:10BA6000B5BA73682268013BAB420CBF75602760B2
:10BA7000002AD9D0D6F88811D6F804B008FA05F310
:10BA80000B4208D1904773685B45B7D1DAF80030B4
:10BA9000B342C9D0B2E7D6F88C01D4F88010034283
:10BAA00007D103989047EEE7B2461E46002EADD16F
:10BAB000D0E708469047E6E77C9A0020E80A0300B2
:10BAC000D1D00200002301461A46184602F018BAE7
:10BAD0002DE9F04F03690F69BB4283B0C0F2868045
